{
  "address": "0xE2b5359Ef857dCd2CF3274962895967Cb447888E",
  "abi": [
    {
      "inputs": [
        {
          "internalType": "address",
          "name": "_usdcAddress",
          "type": "address"
        }
      ],
      "stateMutability": "nonpayable",
      "type": "constructor"
    },
    {
      "inputs": [
        {
          "internalType": "address",
          "name": "owner",
          "type": "address"
        }
      ],
      "name": "OwnableInvalidOwner",
      "type": "error"
    },
    {
      "inputs": [
        {
          "internalType": "address",
          "name": "account",
          "type": "address"
        }
      ],
      "name": "OwnableUnauthorizedAccount",
      "type": "error"
    },
    {
      "inputs": [],
      "name": "ReentrancyGuardReentrantCall",
      "type": "error"
    },
    {
      "anonymous": false,
      "inputs": [
        {
          "indexed": false,
          "internalType": "uint256",
          "name": "listingId",
          "type": "uint256"
        },
        {
          "indexed": true,
          "internalType": "address",
          "name": "nftContract",
          "type": "address"
        },
        {
          "indexed": true,
          "internalType": "uint256",
          "name": "nftId",
          "type": "uint256"
        },
        {
          "indexed": false,
          "internalType": "address",
          "name": "seller",
          "type": "address"
        },
        {
          "indexed": false,
          "internalType": "uint256",
          "name": "price",
          "type": "uint256"
        },
        {
          "indexed": false,
          "internalType": "enum Marketplace.Currency",
          "name": "payableCurrency",
          "type": "uint8"
        },
        {
          "indexed": false,
          "internalType": "bool",
          "name": "isAuction",
          "type": "bool"
        },
        {
          "indexed": false,
          "internalType": "uint256",
          "name": "date",
          "type": "uint256"
        },
        {
          "indexed": false,
          "internalType": "address",
          "name": "highestBidder",
          "type": "address"
        }
      ],
      "name": "ListingCreated",
      "type": "event"
    },
    {
      "anonymous": false,
      "inputs": [
        {
          "indexed": false,
          "internalType": "address",
          "name": "buyer",
          "type": "address"
        },
        {
          "components": [
            {
              "internalType": "address",
              "name": "nftContract",
              "type": "address"
            },
            {
              "internalType": "uint256",
              "name": "nftId",
              "type": "uint256"
            },
            {
              "internalType": "address payable",
              "name": "seller",
              "type": "address"
            },
            {
              "internalType": "uint256",
              "name": "price",
              "type": "uint256"
            },
            {
              "internalType": "enum Marketplace.Currency",
              "name": "payableCurrency",
              "type": "uint8"
            },
            {
              "internalType": "bool",
              "name": "isAuction",
              "type": "bool"
            },
            {
              "internalType": "uint256",
              "name": "date",
              "type": "uint256"
            },
            {
              "internalType": "address",
              "name": "highestBidder",
              "type": "address"
            }
          ],
          "indexed": false,
          "internalType": "struct Marketplace.Listing",
          "name": "listing",
          "type": "tuple"
        },
        {
          "indexed": false,
          "internalType": "uint256",
          "name": "newBid",
          "type": "uint256"
        }
      ],
      "name": "NewBid",
      "type": "event"
    },
    {
      "anonymous": false,
      "inputs": [
        {
          "indexed": true,
          "internalType": "address",
          "name": "previousOwner",
          "type": "address"
        },
        {
          "indexed": true,
          "internalType": "address",
          "name": "newOwner",
          "type": "address"
        }
      ],
      "name": "OwnershipTransferred",
      "type": "event"
    },
    {
      "anonymous": false,
      "inputs": [
        {
          "indexed": true,
          "internalType": "uint256",
          "name": "itemId",
          "type": "uint256"
        },
        {
          "indexed": false,
          "internalType": "address",
          "name": "buyer",
          "type": "address"
        },
        {
          "indexed": false,
          "internalType": "uint256",
          "name": "price",
          "type": "uint256"
        }
      ],
      "name": "Purchase",
      "type": "event"
    },
    {
      "anonymous": false,
      "inputs": [
        {
          "indexed": true,
          "internalType": "uint256",
          "name": "itemId",
          "type": "uint256"
        },
        {
          "indexed": false,
          "internalType": "address",
          "name": "owner",
          "type": "address"
        },
        {
          "indexed": false,
          "internalType": "uint256",
          "name": "price",
          "type": "uint256"
        }
      ],
      "name": "UpdatedPrice",
      "type": "event"
    },
    {
      "inputs": [],
      "name": "USDC",
      "outputs": [
        {
          "internalType": "address",
          "name": "",
          "type": "address"
        }
      ],
      "stateMutability": "view",
      "type": "function"
    },
    {
      "inputs": [
        {
          "internalType": "uint256",
          "name": "listingId",
          "type": "uint256"
        }
      ],
      "name": "auctionCancel",
      "outputs": [],
      "stateMutability": "nonpayable",
      "type": "function"
    },
    {
      "inputs": [
        {
          "internalType": "uint256",
          "name": "listingId",
          "type": "uint256"
        },
        {
          "internalType": "uint256",
          "name": "amount",
          "type": "uint256"
        }
      ],
      "name": "bid",
      "outputs": [],
      "stateMutability": "payable",
      "type": "function"
    },
    {
      "inputs": [
        {
          "internalType": "uint256",
          "name": "listingId",
          "type": "uint256"
        }
      ],
      "name": "buy",
      "outputs": [],
      "stateMutability": "payable",
      "type": "function"
    },
    {
      "inputs": [
        {
          "internalType": "address",
          "name": "nftContract",
          "type": "address"
        },
        {
          "internalType": "uint256",
          "name": "nftId",
          "type": "uint256"
        },
        {
          "internalType": "uint256",
          "name": "price",
          "type": "uint256"
        },
        {
          "internalType": "enum Marketplace.Currency",
          "name": "payableCurrency",
          "type": "uint8"
        },
        {
          "internalType": "bool",
          "name": "isAuction",
          "type": "bool"
        },
        {
          "internalType": "uint256",
          "name": "biddingTime",
          "type": "uint256"
        }
      ],
      "name": "createListing",
      "outputs": [],
      "stateMutability": "nonpayable",
      "type": "function"
    },
    {
      "inputs": [
        {
          "internalType": "uint256",
          "name": "listingId",
          "type": "uint256"
        }
      ],
      "name": "getPrice",
      "outputs": [
        {
          "internalType": "uint256",
          "name": "",
          "type": "uint256"
        }
      ],
      "stateMutability": "view",
      "type": "function"
    },
    {
      "inputs": [
        {
          "internalType": "uint256",
          "name": "",
          "type": "uint256"
        }
      ],
      "name": "listings",
      "outputs": [
        {
          "internalType": "address",
          "name": "nftContract",
          "type": "address"
        },
        {
          "internalType": "uint256",
          "name": "nftId",
          "type": "uint256"
        },
        {
          "internalType": "address payable",
          "name": "seller",
          "type": "address"
        },
        {
          "internalType": "uint256",
          "name": "price",
          "type": "uint256"
        },
        {
          "internalType": "enum Marketplace.Currency",
          "name": "payableCurrency",
          "type": "uint8"
        },
        {
          "internalType": "bool",
          "name": "isAuction",
          "type": "bool"
        },
        {
          "internalType": "uint256",
          "name": "date",
          "type": "uint256"
        },
        {
          "internalType": "address",
          "name": "highestBidder",
          "type": "address"
        }
      ],
      "stateMutability": "view",
      "type": "function"
    },
    {
      "inputs": [],
      "name": "owner",
      "outputs": [
        {
          "internalType": "address",
          "name": "",
          "type": "address"
        }
      ],
      "stateMutability": "view",
      "type": "function"
    },
    {
      "inputs": [
        {
          "internalType": "address",
          "name": "to",
          "type": "address"
        },
        {
          "internalType": "contract IERC20",
          "name": "currency",
          "type": "address"
        },
        {
          "internalType": "uint256",
          "name": "amount",
          "type": "uint256"
        }
      ],
      "name": "removeERC20Stuck",
      "outputs": [],
      "stateMutability": "nonpayable",
      "type": "function"
    },
    {
      "inputs": [
        {
          "internalType": "uint256",
          "name": "listingId",
          "type": "uint256"
        }
      ],
      "name": "removeListing",
      "outputs": [],
      "stateMutability": "nonpayable",
      "type": "function"
    },
    {
      "inputs": [],
      "name": "renounceOwnership",
      "outputs": [],
      "stateMutability": "nonpayable",
      "type": "function"
    },
    {
      "inputs": [
        {
          "internalType": "address",
          "name": "",
          "type": "address"
        }
      ],
      "name": "royalties",
      "outputs": [
        {
          "internalType": "address",
          "name": "_nftContract",
          "type": "address"
        },
        {
          "internalType": "address",
          "name": "payoutAccount",
          "type": "address"
        },
        {
          "internalType": "uint256",
          "name": "royaltyAmount",
          "type": "uint256"
        },
        {
          "internalType": "bool",
          "name": "exists",
          "type": "bool"
        }
      ],
      "stateMutability": "view",
      "type": "function"
    },
    {
      "inputs": [
        {
          "internalType": "address",
          "name": "contractAddress",
          "type": "address"
        },
        {
          "internalType": "address",
          "name": "payoutAccount",
          "type": "address"
        },
        {
          "internalType": "uint256",
          "name": "royaltyAmount",
          "type": "uint256"
        }
      ],
      "name": "setNFTCollectionRoyalty",
      "outputs": [
        {
          "internalType": "bool",
          "name": "",
          "type": "bool"
        }
      ],
      "stateMutability": "nonpayable",
      "type": "function"
    },
    {
      "inputs": [
        {
          "internalType": "address",
          "name": "newOwner",
          "type": "address"
        }
      ],
      "name": "transferOwnership",
      "outputs": [],
      "stateMutability": "nonpayable",
      "type": "function"
    },
    {
      "inputs": [
        {
          "internalType": "uint256",
          "name": "listingId",
          "type": "uint256"
        },
        {
          "internalType": "uint256",
          "name": "newPrice",
          "type": "uint256"
        }
      ],
      "name": "updatePrice",
      "outputs": [],
      "stateMutability": "nonpayable",
      "type": "function"
    },
    {
      "inputs": [
        {
          "internalType": "uint256",
          "name": "listingId",
          "type": "uint256"
        }
      ],
      "name": "withdraw",
      "outputs": [],
      "stateMutability": "nonpayable",
      "type": "function"
    },
    {
      "stateMutability": "payable",
      "type": "receive"
    }
  ],
  "transactionHash": "0xd680f307754f0a46e838c7b4f67e71f56d14dfff2d6f9f5d67cda4741a68ced3",
  "args": [
    "0x41E94Eb019C0762f9Bfcf9Fb1E58725BfB0e7582"
  ],
  "numDeployments": 1,
  "solcInputHash": "655e6166cc679e528fe012a456940dcd",
  "bytecode": "0x60a060405234801561001057600080fd5b5060405161226338038061226383398101604081905261002f916100c7565b6001600055338061005a57604051631e4fbdf760e01b81526000600482015260240160405180910390fd5b61006381610075565b506001600160a01b03166080526100f7565b600180546001600160a01b038381166001600160a01b0319831681179093556040519116919082907f8be0079c531659141344cd1fd0a4f28419497f9722a3daafe3b4186f6b6457e090600090a35050565b6000602082840312156100d957600080fd5b81516001600160a01b03811681146100f057600080fd5b9392505050565b60805161212761013c600039600081816101f4015281816105e20152818161067601528181610e2f01528181610ee5015281816116e1015261179501526121276000f3fe6080604052600436106100f75760003560e01c80638da5cb5b1161008a578063de74e57b11610059578063de74e57b146102fe578063e757223014610386578063f2fde38b146103c5578063f8050d59146103e557600080fd5b80638da5cb5b1461022e5780639fa6b4a01461024c578063d96a094a146102cb578063dd3e4853146102de57600080fd5b806365af3c93116100c657806365af3c9314610178578063715018a6146101ad57806382367b2d146101c257806389a30271146101e257600080fd5b80632e1a7d4d146101035780633af826a414610125578063479ad4c314610145578063598647f81461016557600080fd5b366100fe57005b600080fd5b34801561010f57600080fd5b5061012361011e366004611d21565b610405565b005b34801561013157600080fd5b50610123610140366004611d21565b61074e565b34801561015157600080fd5b50610123610160366004611d21565b6109c7565b610123610173366004611d3a565b610c52565b34801561018457600080fd5b50610198610193366004611d71565b610fbe565b60405190151581526020015b60405180910390f35b3480156101b957600080fd5b50610123611194565b3480156101ce57600080fd5b506101236101dd366004611d3a565b6111a8565b3480156101ee57600080fd5b506102167f000000000000000000000000000000000000000000000000000000000000000081565b6040516001600160a01b0390911681526020016101a4565b34801561023a57600080fd5b506001546001600160a01b0316610216565b34801561025857600080fd5b5061029e610267366004611db2565b60046020526000908152604090208054600182015460028301546003909301546001600160a01b0392831693919092169160ff1684565b604080516001600160a01b03958616815294909316602085015291830152151560608201526080016101a4565b6101236102d9366004611d21565b6113d5565b3480156102ea57600080fd5b506101236102f9366004611d71565b611883565b34801561030a57600080fd5b50610372610319366004611d21565b600360208190526000918252604090912080546001820154600283015493830154600484015460058501546006909501546001600160a01b0394851696939593851694929360ff80841694610100909404169290911688565b6040516101a4989796959493929190611e0e565b34801561039257600080fd5b506103b76103a1366004611d21565b6000908152600360208190526040909120015490565b6040519081526020016101a4565b3480156103d157600080fd5b506101236103e0366004611db2565b6118fe565b3480156103f157600080fd5b50610123610400366004611e78565b611939565b61040d611c78565b600081815260036020818152604080842080546001808301546002808501546006860154988601546001600160a01b03958616808c526004998a9052978b209283015492909401549786015495999698929790851696928516959394919391169160ff909116906127106104818587611ef9565b61048b9190611f16565b6104959086611f38565b905060006127106104a68688611ef9565b6104b09190611f16565b9050336001600160a01b03891614806104d15750336001600160a01b038816145b61053a5760405162461bcd60e51b815260206004820152602f60248201527f4f6e6c79207468652073656c6c6572206f72206869676865737420626964646560448201526e391031b0b7103bb4ba34323930bb9760891b60648201526084015b60405180910390fd5b604051632142170760e11b81526001600160a01b038b16906342842e0e9061056a908b908b908e90600401611f4b565b600060405180830381600087803b15801561058457600080fd5b505af1158015610598573d6000803e3d6000fd5b50600192506105a5915050565b8360018111156105b7576105b7611dd6565b036106e55760405163a9059cbb60e01b81526001600160a01b038981166004830152602482018490527f0000000000000000000000000000000000000000000000000000000000000000169063a9059cbb906044016020604051808303816000875af115801561062b573d6000803e3d6000fd5b505050506040513d601f19601f8201168201806040525081019061064f9190611f6f565b5060405163a9059cbb60e01b81526001600160a01b038581166004830152602482018390527f0000000000000000000000000000000000000000000000000000000000000000169063a9059cbb906044016020604051808303816000875af11580156106bf573d6000803e3d6000fd5b505050506040513d601f19601f820116820180604052508101906106e39190611f6f565b505b60048b01805461ff0019169055604080516001600160a01b0389168152602081018890528d917f9b9322562a425e363b0c2f80fc966e9c4f48ac3b5c2d1527d75829c8f505ec96910160405180910390a2505050505050505050505061074b6001600055565b50565b600081815260036020818152604080842081516101008101835281546001600160a01b039081168252600180840154958301959095526002830154169281019290925292830154606082015260048301548594939192608084019160ff16908111156107bc576107bc611dd6565b60018111156107cd576107cd611dd6565b815260048281015460ff61010090910416151560208084019190915260058401546040808501919091526006909401546001600160a01b0390811660609094019390935284519085015193516331a9108f60e11b8152949550600094921692636352211e92610840920190815260200190565b602060405180830381865afa15801561085d573d6000803e3d6000fd5b505050506040513d601f19601f820116820180604052508101906108819190611f8c565b90506001600160a01b03811633146108ab5760405162461bcd60e51b815260040161053190611fa9565b6108b3611c78565b6000848152600360205260409020600581015442106109105760405162461bcd60e51b8152602060048201526019602482015278105d58dd1a5bdb881a185cc8185b1c9958591e48195b991959603a1b6044820152606401610531565b60068101546001600160a01b03161561096557600681015460038201546040516001600160a01b039092169181156108fc0291906000818181858888f19350505050158015610963573d6000803e3d6000fd5b505b506000848152600360208190526040822080546001600160a01b0319908116825560018083018590556002830180548316905592820184905560048201805461ffff191690556005820184905560069091018054909116905590555b50505050565b600081815260036020818152604080842081516101008101835281546001600160a01b039081168252600180840154958301959095526002830154169281019290925292830154606082015260048301548594939192608084019160ff1690811115610a3557610a35611dd6565b6001811115610a4657610a46611dd6565b815260048281015460ff61010090910416151560208084019190915260058401546040808501919091526006909401546001600160a01b0390811660609094019390935284519085015193516331a9108f60e11b8152949550600094921692636352211e92610ab9920190815260200190565b602060405180830381865afa158015610ad6573d6000803e3d6000fd5b505050506040513d601f19601f82011682018060405250810190610afa9190611f8c565b90506001600160a01b0381163314610b245760405162461bcd60e51b815260040161053190611fa9565b600084815260036020526040902060028101546001600160a01b03163314610b8e5760405162461bcd60e51b815260206004820152601c60248201527f596f7520646f206e6f74206f776e2074686973206c697374696e672e000000006044820152606401610531565b6004810154610100900460ff1615610bf45760405162461bcd60e51b815260206004820152602360248201527f596f752063616e6e6f742072656d6f766520616e20616374697665206175637460448201526234b7b760e91b6064820152608401610531565b505050600091825250600360208190526040822080546001600160a01b03199081168255600182018490556002820180548216905591810183905560048101805461ffff191690556005810192909255600690910180549091169055565b610c5a611c78565b6000828152600360208190526040909120908101546006820154600483015460028401546001600160a01b039283169260ff90921691163303610cf15760405162461bcd60e51b815260206004820152602960248201527f596f752063616e6e6f7420626964206f6e20616e204e465420796f75206172656044820152681039b2b63634b7339760b91b6064820152608401610531565b6004840154610100900460ff16610d4a5760405162461bcd60e51b815260206004820152601e60248201527f54686973206c697374696e67206973206e6f7420616e2061756374696f6e00006044820152606401610531565b83600501544210610d995760405162461bcd60e51b8152602060048201526019602482015278105d58dd1a5bdb881a185cc8185b1c9958591e48195b991959603a1b6044820152606401610531565b83600301548511610dff5760405162461bcd60e51b815260206004820152602a60248201527f426964206d7573742062652067726561746572207468616e20746865207072656044820152693b34b7bab9903134b21760b11b6064820152608401610531565b6001816001811115610e1357610e13611dd6565b03610f54576040516323b872dd60e01b81526001600160a01b037f000000000000000000000000000000000000000000000000000000000000000016906323b872dd90610e6890339030908a90600401611f4b565b6020604051808303816000875af1158015610e87573d6000803e3d6000fd5b505050506040513d601f19601f82011682018060405250810190610eab9190611f6f565b5060068401546001600160a01b031615610f545760405163a9059cbb60e01b81526001600160a01b038381166004830152602482018590527f0000000000000000000000000000000000000000000000000000000000000000169063a9059cbb906044016020604051808303816000875af1158015610f2e573d6000803e3d6000fd5b505050506040513d601f19601f82011682018060405250810190610f529190611f6f565b505b6006840180546001600160a01b03191633908117909155600385018690556040517f5cb5ae25865fa1422f829e0cc84537813538acc2206c4b76c2c63153e8e87ebb91610fa49187908990611fe0565b60405180910390a150505050610fba6001600055565b5050565b6001600160a01b03831660009081526004602052604081206003015460ff161561103b5760405162461bcd60e51b815260206004820152602860248201527f436f6c6c656374696f6e20616c72656164792068617320726f79616c747920696044820152673733379039b2ba1760c11b6064820152608401610531565b60008211801561104d57506113888211155b6110b35760405162461bcd60e51b815260206004820152603160248201527f506c6561736520736574206120726f79616c747920616d6f756e74206265747760448201527065656e20302e30312520616e642035302560781b6064820152608401610531565b6001600160a01b0383166111095760405162461bcd60e51b815260206004820152601f60248201527f526f79616c746965732073686f756c64206e6f74206265206275726e65642e006044820152606401610531565b50604080516080810182526001600160a01b0394851680825293851660208083019182528284019485526001606084018181526000978852600490925293909520915182549087166001600160a01b031991821617835590518284018054919097169116179094559051600284015590516003909201805492151560ff199093169290921790915590565b61119c611ca2565b6111a66000611ccf565b565b600082815260036020818152604080842081516101008101835281546001600160a01b039081168252600180840154958301959095526002830154169281019290925292830154606082015260048301548694939192608084019160ff169081111561121657611216611dd6565b600181111561122757611227611dd6565b815260048281015460ff61010090910416151560208084019190915260058401546040808501919091526006909401546001600160a01b0390811660609094019390935284519085015193516331a9108f60e11b8152949550600094921692636352211e9261129a920190815260200190565b602060405180830381865afa1580156112b7573d6000803e3d6000fd5b505050506040513d601f19601f820116820180604052508101906112db9190611f8c565b90506001600160a01b03811633146113055760405162461bcd60e51b815260040161053190611fa9565b600085815260036020526040902060040154610100900460ff161561137e5760405162461bcd60e51b815260206004820152602960248201527f41756374696f6e207374617274696e67207072696365732063616e6e6f74206260448201526819481d5c19185d195960ba1b6064820152608401610531565b600085815260036020818152604092839020909101869055815133815290810186905286917fa31afe7e1095ff5691002b0fc0eaaf501f18b562b88369b0acf5d4e670d7426f910160405180910390a25050505050565b6113dd611c78565b600081815260036020818152604080842081516101008101835281546001600160a01b03908116825260018084015495830195909552600283015416928101929092529283015460608201526004830154909291608084019160ff169081111561144957611449611dd6565b600181111561145a5761145a611dd6565b8152600482810154610100900460ff16151560208084019190915260058401546040808501919091526006909401546001600160a01b03908116606094850152855186860151878401519588015160808901518385166000908152969095529690942060028101546001909101549798509096939593909190811690861633036115355760405162461bcd60e51b815260206004820152602660248201527f596f752063616e6e6f742062757920616e204e465420796f7520617265207365604482015265363634b7339760d11b6064820152608401610531565b6001600160a01b03871661158b5760405162461bcd60e51b815260206004820152601760248201527f4c697374696e6720646f6573206e6f742065786973742e0000000000000000006044820152606401610531565b8760a00151156115ed5760405162461bcd60e51b815260206004820152602760248201527f54686973206c697374696e672069732064657369676e6174656420666f7220616044820152663ab1ba34b7b71760c91b6064820152608401610531565b833410156116555760405162461bcd60e51b815260206004820152602f60248201527f506c65617365207375626d69742061736b696e6720707269636520746f20636f60448201526e6d706c65746520707572636861736560881b6064820152608401610531565b604051632142170760e11b81526001600160a01b038816906342842e0e9061168590899033908a90600401611f4b565b600060405180830381600087803b15801561169f57600080fd5b505af11580156116b3573d6000803e3d6000fd5b50600192506116c0915050565b8360018111156116d2576116d2611dd6565b03611836576001600160a01b037f0000000000000000000000000000000000000000000000000000000000000000166323b872dd3388612710611715878a611ef9565b61171f9190611f16565b6117299089611f38565b6040518463ffffffff1660e01b815260040161174793929190611f4b565b6020604051808303816000875af1158015611766573d6000803e3d6000fd5b505050506040513d601f19601f8201168201806040525081019061178a9190611f6f565b506001600160a01b037f0000000000000000000000000000000000000000000000000000000000000000166323b872dd33836127106117c9878a611ef9565b6117d39190611f16565b6040518463ffffffff1660e01b81526004016117f193929190611f4b565b6020604051808303816000875af1158015611810573d6000803e3d6000fd5b505050506040513d601f19601f820116820180604052508101906118349190611f6f565b505b60408051338152602081018690528a917f9b9322562a425e363b0c2f80fc966e9c4f48ac3b5c2d1527d75829c8f505ec96910160405180910390a2505050505050505061074b6001600055565b61188b611ca2565b60405163a9059cbb60e01b81526001600160a01b0384811660048301526024820183905283169063a9059cbb906044016020604051808303816000875af11580156118da573d6000803e3d6000fd5b505050506040513d601f19601f820116820180604052508101906109c19190611f6f565b611906611ca2565b6001600160a01b03811661193057604051631e4fbdf760e01b815260006004820152602401610531565b61074b81611ccf565b611941611c78565b600084116119915760405162461bcd60e51b815260206004820152601d60248201527f5072696365206d7573742062652067726561746572207468616e20302e0000006044820152606401610531565b6040516331a9108f60e11b8152600481018690526000906001600160a01b03881690636352211e90602401602060405180830381865afa1580156119d9573d6000803e3d6000fd5b505050506040513d601f19601f820116820180604052508101906119fd9190611f8c565b90506001600160a01b0381163314611a635760405162461bcd60e51b8152602060048201526024808201527f596f752063616e27742073656c6c20616e204e465420796f7520646f6e2774206044820152636f776e2160e01b6064820152608401610531565b8215611ab95760008211611ab95760405162461bcd60e51b815260206004820152601f60248201527f41756374696f6e73206d757374206861766520612076616c69642064617465006044820152606401610531565b60028054906000611ac983612074565b90915550506002546000611add844261208d565b90506040518061010001604052808a6001600160a01b03168152602001898152602001336001600160a01b03168152602001888152602001876001811115611b2757611b27611dd6565b8152861515602080830191909152604080830185905260006060938401819052868152600380845290829020855181546001600160a01b03199081166001600160a01b0392831617835594870151600180840191909155938701516002830180549096169116179093559284015192820192909255608083015160048201805492939192909160ff19909116908381811115611bc557611bc5611dd6565b021790555060a082015160048201805461ff0019166101009215159290920291909117905560c0820151600582015560e090910151600690910180546001600160a01b0319166001600160a01b0392831617905560405189918b16907f7802718a2731045d6791e286eea48cb7ee3321ac77421fe8686dca488e70011890611c5b90869033908d908d908d908a906000906120a0565b60405180910390a3505050611c706001600055565b505050505050565b600260005403611c9b57604051633ee5aeb560e01b815260040160405180910390fd5b6002600055565b6001546001600160a01b031633146111a65760405163118cdaa760e01b8152336004820152602401610531565b600180546001600160a01b038381166001600160a01b0319831681179093556040519116919082907f8be0079c531659141344cd1fd0a4f28419497f9722a3daafe3b4186f6b6457e090600090a35050565b600060208284031215611d3357600080fd5b5035919050565b60008060408385031215611d4d57600080fd5b50508035926020909101359150565b6001600160a01b038116811461074b57600080fd5b600080600060608486031215611d8657600080fd5b8335611d9181611d5c565b92506020840135611da181611d5c565b929592945050506040919091013590565b600060208284031215611dc457600080fd5b8135611dcf81611d5c565b9392505050565b634e487b7160e01b600052602160045260246000fd5b60028110611e0a57634e487b7160e01b600052602160045260246000fd5b9052565b6001600160a01b0389811682526020820189905287166040820152606081018690526101008101611e426080830187611dec565b93151560a082015260c08101929092526001600160a01b031660e09091015295945050505050565b801515811461074b57600080fd5b60008060008060008060c08789031215611e9157600080fd5b8635611e9c81611d5c565b95506020870135945060408701359350606087013560028110611ebe57600080fd5b92506080870135611ece81611e6a565b9598949750929591949360a090920135925050565b634e487b7160e01b600052601160045260246000fd5b8082028115828204841417611f1057611f10611ee3565b92915050565b600082611f3357634e487b7160e01b600052601260045260246000fd5b500490565b81810381811115611f1057611f10611ee3565b6001600160a01b039384168152919092166020820152604081019190915260600190565b600060208284031215611f8157600080fd5b8151611dcf81611e6a565b600060208284031215611f9e57600080fd5b8151611dcf81611d5c565b60208082526017908201527f596f7520646f6e2774206f776e2074686973204e465421000000000000000000604082015260600190565b6001600160a01b038481168252835416602082015261014081016001840154604083015260028401546001600160a01b0316606083015260038401546080830152600484015461203660a0840160ff8316611dec565b61204a60c0840160ff8360081c1615159052565b50600584015460e08301526006909301546001600160a01b03166101008201526101200152919050565b60006001820161208657612086611ee3565b5060010190565b80820180821115611f1057611f10611ee3565b8781526001600160a01b03871660208201526040810186905260e081016120ca6060830187611dec565b931515608082015260a08101929092526001600160a01b031660c09091015294935050505056fea26469706673582212202617c787a135dae7c08583024d6ff4a7318b7f3c226c5f1d4a0153c7f042095c64736f6c634300081a0033",
  "devdoc": {
    "errors": {
      "OwnableInvalidOwner(address)": [
        {
          "details": "The owner is not a valid owner account. (eg. `address(0)`)"
        }
      ],
      "OwnableUnauthorizedAccount(address)": [
        {
          "details": "The caller account is not authorized to perform an operation."
        }
      ],
      "ReentrancyGuardReentrantCall()": [
        {
          "details": "Unauthorized reentrant call."
        }
      ]
    },
    "kind": "dev",
    "methods": {
      "owner()": {
        "details": "Returns the address of the current owner."
      },
      "renounceOwnership()": {
        "details": "Leaves the contract without owner. It will not be possible to call `onlyOwner` functions. Can only be called by the current owner. NOTE: Renouncing ownership will leave the contract without an owner, thereby disabling any functionality that is only available to the owner."
      },
      "transferOwnership(address)": {
        "details": "Transfers ownership of the contract to a new account (`newOwner`). Can only be called by the current owner."
      }
    },
    "version": 1
  },
  "userdoc": {
    "kind": "user",
    "methods": {},
    "version": 1
  },
  "storageLayout": {
    "storage": [
      {
        "astId": 1135,
        "contract": "contracts/Marketplace.sol:Marketplace",
        "label": "_status",
        "offset": 0,
        "slot": "0",
        "type": "t_uint256"
      },
      {
        "astId": 8,
        "contract": "contracts/Marketplace.sol:Marketplace",
        "label": "_owner",
        "offset": 0,
        "slot": "1",
        "type": "t_address"
      },
      {
        "astId": 1217,
        "contract": "contracts/Marketplace.sol:Marketplace",
        "label": "listingIds",
        "offset": 0,
        "slot": "2",
        "type": "t_uint256"
      },
      {
        "astId": 1225,
        "contract": "contracts/Marketplace.sol:Marketplace",
        "label": "listings",
        "offset": 0,
        "slot": "3",
        "type": "t_mapping(t_uint256,t_struct(Listing)1253_storage)"
      },
      {
        "astId": 1230,
        "contract": "contracts/Marketplace.sol:Marketplace",
        "label": "royalties",
        "offset": 0,
        "slot": "4",
        "type": "t_mapping(t_address,t_struct(Royalties)1262_storage)"
      }
    ],
    "types": {
      "t_address": {
        "encoding": "inplace",
        "label": "address",
        "numberOfBytes": "20"
      },
      "t_address_payable": {
        "encoding": "inplace",
        "label": "address payable",
        "numberOfBytes": "20"
      },
      "t_bool": {
        "encoding": "inplace",
        "label": "bool",
        "numberOfBytes": "1"
      },
      "t_enum(Currency)1220": {
        "encoding": "inplace",
        "label": "enum Marketplace.Currency",
        "numberOfBytes": "1"
      },
      "t_mapping(t_address,t_struct(Royalties)1262_storage)": {
        "encoding": "mapping",
        "key": "t_address",
        "label": "mapping(address => struct Marketplace.Royalties)",
        "numberOfBytes": "32",
        "value": "t_struct(Royalties)1262_storage"
      },
      "t_mapping(t_uint256,t_struct(Listing)1253_storage)": {
        "encoding": "mapping",
        "key": "t_uint256",
        "label": "mapping(uint256 => struct Marketplace.Listing)",
        "numberOfBytes": "32",
        "value": "t_struct(Listing)1253_storage"
      },
      "t_struct(Listing)1253_storage": {
        "encoding": "inplace",
        "label": "struct Marketplace.Listing",
        "members": [
          {
            "astId": 1237,
            "contract": "contracts/Marketplace.sol:Marketplace",
            "label": "nftContract",
            "offset": 0,
            "slot": "0",
            "type": "t_address"
          },
          {
            "astId": 1239,
            "contract": "contracts/Marketplace.sol:Marketplace",
            "label": "nftId",
            "offset": 0,
            "slot": "1",
            "type": "t_uint256"
          },
          {
            "astId": 1241,
            "contract": "contracts/Marketplace.sol:Marketplace",
            "label": "seller",
            "offset": 0,
            "slot": "2",
            "type": "t_address_payable"
          },
          {
            "astId": 1243,
            "contract": "contracts/Marketplace.sol:Marketplace",
            "label": "price",
            "offset": 0,
            "slot": "3",
            "type": "t_uint256"
          },
          {
            "astId": 1246,
            "contract": "contracts/Marketplace.sol:Marketplace",
            "label": "payableCurrency",
            "offset": 0,
            "slot": "4",
            "type": "t_enum(Currency)1220"
          },
          {
            "astId": 1248,
            "contract": "contracts/Marketplace.sol:Marketplace",
            "label": "isAuction",
            "offset": 1,
            "slot": "4",
            "type": "t_bool"
          },
          {
            "astId": 1250,
            "contract": "contracts/Marketplace.sol:Marketplace",
            "label": "date",
            "offset": 0,
            "slot": "5",
            "type": "t_uint256"
          },
          {
            "astId": 1252,
            "contract": "contracts/Marketplace.sol:Marketplace",
            "label": "highestBidder",
            "offset": 0,
            "slot": "6",
            "type": "t_address"
          }
        ],
        "numberOfBytes": "224"
      },
      "t_struct(Royalties)1262_storage": {
        "encoding": "inplace",
        "label": "struct Marketplace.Royalties",
        "members": [
          {
            "astId": 1255,
            "contract": "contracts/Marketplace.sol:Marketplace",
            "label": "_nftContract",
            "offset": 0,
            "slot": "0",
            "type": "t_address"
          },
          {
            "astId": 1257,
            "contract": "contracts/Marketplace.sol:Marketplace",
            "label": "payoutAccount",
            "offset": 0,
            "slot": "1",
            "type": "t_address"
          },
          {
            "astId": 1259,
            "contract": "contracts/Marketplace.sol:Marketplace",
            "label": "royaltyAmount",
            "offset": 0,
            "slot": "2",
            "type": "t_uint256"
          },
          {
            "astId": 1261,
            "contract": "contracts/Marketplace.sol:Marketplace",
            "label": "exists",
            "offset": 0,
            "slot": "3",
            "type": "t_bool"
          }
        ],
        "numberOfBytes": "128"
      },
      "t_uint256": {
        "encoding": "inplace",
        "label": "uint256",
        "numberOfBytes": "32"
      }
    }
  }
}