{
  "address": "0x312504Ef3562d2B06b52f8b657fE60171ff94410",
  "abi": [
    {
      "inputs": [],
      "stateMutability": "nonpayable",
      "type": "constructor"
    },
    {
      "inputs": [],
      "name": "ERC721EnumerableForbiddenBatchMint",
      "type": "error"
    },
    {
      "inputs": [
        {
          "internalType": "address",
          "name": "sender",
          "type": "address"
        },
        {
          "internalType": "uint256",
          "name": "tokenId",
          "type": "uint256"
        },
        {
          "internalType": "address",
          "name": "owner",
          "type": "address"
        }
      ],
      "name": "ERC721IncorrectOwner",
      "type": "error"
    },
    {
      "inputs": [
        {
          "internalType": "address",
          "name": "operator",
          "type": "address"
        },
        {
          "internalType": "uint256",
          "name": "tokenId",
          "type": "uint256"
        }
      ],
      "name": "ERC721InsufficientApproval",
      "type": "error"
    },
    {
      "inputs": [
        {
          "internalType": "address",
          "name": "approver",
          "type": "address"
        }
      ],
      "name": "ERC721InvalidApprover",
      "type": "error"
    },
    {
      "inputs": [
        {
          "internalType": "address",
          "name": "operator",
          "type": "address"
        }
      ],
      "name": "ERC721InvalidOperator",
      "type": "error"
    },
    {
      "inputs": [
        {
          "internalType": "address",
          "name": "owner",
          "type": "address"
        }
      ],
      "name": "ERC721InvalidOwner",
      "type": "error"
    },
    {
      "inputs": [
        {
          "internalType": "address",
          "name": "receiver",
          "type": "address"
        }
      ],
      "name": "ERC721InvalidReceiver",
      "type": "error"
    },
    {
      "inputs": [
        {
          "internalType": "address",
          "name": "sender",
          "type": "address"
        }
      ],
      "name": "ERC721InvalidSender",
      "type": "error"
    },
    {
      "inputs": [
        {
          "internalType": "uint256",
          "name": "tokenId",
          "type": "uint256"
        }
      ],
      "name": "ERC721NonexistentToken",
      "type": "error"
    },
    {
      "inputs": [
        {
          "internalType": "address",
          "name": "owner",
          "type": "address"
        },
        {
          "internalType": "uint256",
          "name": "index",
          "type": "uint256"
        }
      ],
      "name": "ERC721OutOfBoundsIndex",
      "type": "error"
    },
    {
      "anonymous": false,
      "inputs": [
        {
          "indexed": true,
          "internalType": "address",
          "name": "owner",
          "type": "address"
        },
        {
          "indexed": true,
          "internalType": "address",
          "name": "approved",
          "type": "address"
        },
        {
          "indexed": true,
          "internalType": "uint256",
          "name": "tokenId",
          "type": "uint256"
        }
      ],
      "name": "Approval",
      "type": "event"
    },
    {
      "anonymous": false,
      "inputs": [
        {
          "indexed": true,
          "internalType": "address",
          "name": "owner",
          "type": "address"
        },
        {
          "indexed": true,
          "internalType": "address",
          "name": "operator",
          "type": "address"
        },
        {
          "indexed": false,
          "internalType": "bool",
          "name": "approved",
          "type": "bool"
        }
      ],
      "name": "ApprovalForAll",
      "type": "event"
    },
    {
      "anonymous": false,
      "inputs": [
        {
          "indexed": false,
          "internalType": "uint256",
          "name": "_fromTokenId",
          "type": "uint256"
        },
        {
          "indexed": false,
          "internalType": "uint256",
          "name": "_toTokenId",
          "type": "uint256"
        }
      ],
      "name": "BatchMetadataUpdate",
      "type": "event"
    },
    {
      "anonymous": false,
      "inputs": [
        {
          "indexed": false,
          "internalType": "uint256",
          "name": "_tokenId",
          "type": "uint256"
        }
      ],
      "name": "MetadataUpdate",
      "type": "event"
    },
    {
      "anonymous": false,
      "inputs": [
        {
          "indexed": true,
          "internalType": "address",
          "name": "from",
          "type": "address"
        },
        {
          "indexed": true,
          "internalType": "address",
          "name": "to",
          "type": "address"
        },
        {
          "indexed": true,
          "internalType": "uint256",
          "name": "tokenId",
          "type": "uint256"
        }
      ],
      "name": "Transfer",
      "type": "event"
    },
    {
      "inputs": [
        {
          "internalType": "address",
          "name": "to",
          "type": "address"
        },
        {
          "internalType": "uint256",
          "name": "tokenId",
          "type": "uint256"
        }
      ],
      "name": "approve",
      "outputs": [],
      "stateMutability": "nonpayable",
      "type": "function"
    },
    {
      "inputs": [
        {
          "internalType": "address",
          "name": "owner",
          "type": "address"
        }
      ],
      "name": "balanceOf",
      "outputs": [
        {
          "internalType": "uint256",
          "name": "",
          "type": "uint256"
        }
      ],
      "stateMutability": "view",
      "type": "function"
    },
    {
      "inputs": [
        {
          "internalType": "uint256",
          "name": "tokenId",
          "type": "uint256"
        }
      ],
      "name": "getApproved",
      "outputs": [
        {
          "internalType": "address",
          "name": "",
          "type": "address"
        }
      ],
      "stateMutability": "view",
      "type": "function"
    },
    {
      "inputs": [
        {
          "internalType": "address",
          "name": "owner",
          "type": "address"
        },
        {
          "internalType": "address",
          "name": "operator",
          "type": "address"
        }
      ],
      "name": "isApprovedForAll",
      "outputs": [
        {
          "internalType": "bool",
          "name": "",
          "type": "bool"
        }
      ],
      "stateMutability": "view",
      "type": "function"
    },
    {
      "inputs": [
        {
          "internalType": "string",
          "name": "_tokenURI",
          "type": "string"
        }
      ],
      "name": "mintItem",
      "outputs": [
        {
          "internalType": "bool",
          "name": "",
          "type": "bool"
        }
      ],
      "stateMutability": "nonpayable",
      "type": "function"
    },
    {
      "inputs": [],
      "name": "name",
      "outputs": [
        {
          "internalType": "string",
          "name": "",
          "type": "string"
        }
      ],
      "stateMutability": "view",
      "type": "function"
    },
    {
      "inputs": [
        {
          "internalType": "uint256",
          "name": "tokenId",
          "type": "uint256"
        }
      ],
      "name": "ownerOf",
      "outputs": [
        {
          "internalType": "address",
          "name": "",
          "type": "address"
        }
      ],
      "stateMutability": "view",
      "type": "function"
    },
    {
      "inputs": [
        {
          "internalType": "address",
          "name": "from",
          "type": "address"
        },
        {
          "internalType": "address",
          "name": "to",
          "type": "address"
        },
        {
          "internalType": "uint256",
          "name": "tokenId",
          "type": "uint256"
        }
      ],
      "name": "safeTransferFrom",
      "outputs": [],
      "stateMutability": "nonpayable",
      "type": "function"
    },
    {
      "inputs": [
        {
          "internalType": "address",
          "name": "from",
          "type": "address"
        },
        {
          "internalType": "address",
          "name": "to",
          "type": "address"
        },
        {
          "internalType": "uint256",
          "name": "tokenId",
          "type": "uint256"
        },
        {
          "internalType": "bytes",
          "name": "data",
          "type": "bytes"
        }
      ],
      "name": "safeTransferFrom",
      "outputs": [],
      "stateMutability": "nonpayable",
      "type": "function"
    },
    {
      "inputs": [
        {
          "internalType": "address",
          "name": "operator",
          "type": "address"
        },
        {
          "internalType": "bool",
          "name": "approved",
          "type": "bool"
        }
      ],
      "name": "setApprovalForAll",
      "outputs": [],
      "stateMutability": "nonpayable",
      "type": "function"
    },
    {
      "inputs": [
        {
          "internalType": "bytes4",
          "name": "interfaceId",
          "type": "bytes4"
        }
      ],
      "name": "supportsInterface",
      "outputs": [
        {
          "internalType": "bool",
          "name": "",
          "type": "bool"
        }
      ],
      "stateMutability": "view",
      "type": "function"
    },
    {
      "inputs": [],
      "name": "symbol",
      "outputs": [
        {
          "internalType": "string",
          "name": "",
          "type": "string"
        }
      ],
      "stateMutability": "view",
      "type": "function"
    },
    {
      "inputs": [
        {
          "internalType": "uint256",
          "name": "index",
          "type": "uint256"
        }
      ],
      "name": "tokenByIndex",
      "outputs": [
        {
          "internalType": "uint256",
          "name": "",
          "type": "uint256"
        }
      ],
      "stateMutability": "view",
      "type": "function"
    },
    {
      "inputs": [],
      "name": "tokenIdCounter",
      "outputs": [
        {
          "internalType": "uint256",
          "name": "",
          "type": "uint256"
        }
      ],
      "stateMutability": "view",
      "type": "function"
    },
    {
      "inputs": [
        {
          "internalType": "address",
          "name": "owner",
          "type": "address"
        },
        {
          "internalType": "uint256",
          "name": "index",
          "type": "uint256"
        }
      ],
      "name": "tokenOfOwnerByIndex",
      "outputs": [
        {
          "internalType": "uint256",
          "name": "",
          "type": "uint256"
        }
      ],
      "stateMutability": "view",
      "type": "function"
    },
    {
      "inputs": [
        {
          "internalType": "uint256",
          "name": "tokenId",
          "type": "uint256"
        }
      ],
      "name": "tokenURI",
      "outputs": [
        {
          "internalType": "string",
          "name": "",
          "type": "string"
        }
      ],
      "stateMutability": "view",
      "type": "function"
    },
    {
      "inputs": [],
      "name": "totalSupply",
      "outputs": [
        {
          "internalType": "uint256",
          "name": "",
          "type": "uint256"
        }
      ],
      "stateMutability": "view",
      "type": "function"
    },
    {
      "inputs": [
        {
          "internalType": "address",
          "name": "from",
          "type": "address"
        },
        {
          "internalType": "address",
          "name": "to",
          "type": "address"
        },
        {
          "internalType": "uint256",
          "name": "tokenId",
          "type": "uint256"
        }
      ],
      "name": "transferFrom",
      "outputs": [],
      "stateMutability": "nonpayable",
      "type": "function"
    },
    {
      "inputs": [
        {
          "internalType": "string",
          "name": "",
          "type": "string"
        }
      ],
      "name": "uriToTokenId",
      "outputs": [
        {
          "internalType": "uint256",
          "name": "",
          "type": "uint256"
        }
      ],
      "stateMutability": "view",
      "type": "function"
    }
  ],
  "transactionHash": "0xda2472a5efa020c82b039edaaa14a9d9c104ab6ba51e78b7426760f4d525efe6",
  "args": [],
  "numDeployments": 1,
  "solcInputHash": "0b41908934df62b29a70f527199b5787",
  "bytecode": "0x608060405234801561001057600080fd5b506040518060400160405280600f81526020016e596f7572436f6c6c65637469626c6560881b81525060405180604001604052806002815260200161594360f01b81525081600090816100639190610117565b5060016100708282610117565b5050506101d5565b634e487b7160e01b600052604160045260246000fd5b600181811c908216806100a257607f821691505b6020821081036100c257634e487b7160e01b600052602260045260246000fd5b50919050565b601f82111561011257806000526020600020601f840160051c810160208510156100ef5750805b601f840160051c820191505b8181101561010f57600081556001016100fb565b50505b505050565b81516001600160401b0381111561013057610130610078565b6101448161013e845461008e565b846100c8565b6020601f82116001811461017857600083156101605750848201515b600019600385901b1c1916600184901b17845561010f565b600084815260208120601f198516915b828110156101a85787850151825560209485019460019092019101610188565b50848210156101c65786840151600019600387901b60f8161c191681555b50505050600190811b01905550565b611776806101e46000396000f3fe608060405234801561001057600080fd5b50600436106101205760003560e01c80634f6ccce7116100ad578063a22cb46511610071578063a22cb46514610265578063b88d4fde14610278578063c75458491461028b578063c87b56dd1461029e578063e985e9c5146102b157600080fd5b80634f6ccce71461021c5780636352211e1461022f57806370a082311461024257806395d89b411461025557806398bdf6f51461025d57600080fd5b8063095ea7b3116100f4578063095ea7b3146101c657806318160ddd146101db57806323b872dd146101e35780632f745c59146101f657806342842e0e1461020957600080fd5b8062aab7f71461012557806301ffc9a71461016357806306fdde0314610186578063081812fc1461019b575b600080fd5b610150610133366004611269565b8051602081830181018051600b8252928201919093012091525481565b6040519081526020015b60405180910390f35b6101766101713660046112cb565b6102c4565b604051901515815260200161015a565b61018e6102d5565b60405161015a9190611338565b6101ae6101a936600461134b565b610367565b6040516001600160a01b03909116815260200161015a565b6101d96101d4366004611380565b610390565b005b600854610150565b6101d96101f13660046113aa565b61039f565b610150610204366004611380565b61042f565b6101d96102173660046113aa565b610494565b61015061022a36600461134b565b6104b4565b6101ae61023d36600461134b565b61050d565b6101506102503660046113e7565b610518565b61018e610560565b600c54610150565b6101d9610273366004611402565b61056f565b6101d961028636600461143e565b61057a565b610176610299366004611269565b610591565b61018e6102ac36600461134b565b6105e8565b6101766102bf3660046114ba565b6105f3565b60006102cf82610621565b92915050565b6060600080546102e4906114ed565b80601f0160208091040260200160405190810160405280929190818152602001828054610310906114ed565b801561035d5780601f106103325761010080835404028352916020019161035d565b820191906000526020600020905b81548152906001019060200180831161034057829003601f168201915b5050505050905090565b600061037282610646565b506000828152600460205260409020546001600160a01b03166102cf565b61039b82823361067f565b5050565b6001600160a01b0382166103ce57604051633250574960e11b8152600060048201526024015b60405180910390fd5b60006103db83833361068c565b9050836001600160a01b0316816001600160a01b031614610429576040516364283d7b60e01b81526001600160a01b03808616600483015260248201849052821660448201526064016103c5565b50505050565b600061043a83610518565b821061046b5760405163295f44f760e21b81526001600160a01b0384166004820152602481018390526044016103c5565b506001600160a01b03919091166000908152600660209081526040808320938352929052205490565b6104af8383836040518060200160405280600081525061057a565b505050565b60006104bf60085490565b82106104e85760405163295f44f760e21b815260006004820152602481018390526044016103c5565b600882815481106104fb576104fb611527565b90600052602060002001549050919050565b60006102cf82610646565b60006001600160a01b038216610544576040516322718ad960e21b8152600060048201526024016103c5565b506001600160a01b031660009081526003602052604090205490565b6060600180546102e4906114ed565b61039b3383836106a1565b61058584848461039f565b61042984848484610740565b600c8054600091826105a283611553565b9091555050600c546105b43382610869565b6105be81846108ce565b80600b846040516105cf919061156c565b9081526040519081900360200190205550600192915050565b60606102cf8261091e565b6001600160a01b03918216600090815260056020908152604080832093909416825291909152205460ff1690565b60006001600160e01b03198216632483248360e11b14806102cf57506102cf82610a44565b6000818152600260205260408120546001600160a01b0316806102cf57604051637e27328960e01b8152600481018490526024016103c5565b6104af8383836001610a69565b6000610699848484610b6f565b949350505050565b6001600160a01b0382166106d357604051630b61174360e31b81526001600160a01b03831660048201526024016103c5565b6001600160a01b03838116600081815260056020908152604080832094871680845294825291829020805460ff191686151590811790915591519182527f17307eab39ab6107e8899845ad3d59bd9653f200f220920489ca2b5937696c31910160405180910390a3505050565b6001600160a01b0383163b1561042957604051630a85bd0160e11b81526001600160a01b0384169063150b7a0290610782903390889087908790600401611588565b6020604051808303816000875af19250505080156107bd575060408051601f3d908101601f191682019092526107ba918101906115c5565b60015b610826573d8080156107eb576040519150601f19603f3d011682016040523d82523d6000602084013e6107f0565b606091505b50805160000361081e57604051633250574960e11b81526001600160a01b03851660048201526024016103c5565b805181602001fd5b6001600160e01b03198116630a85bd0160e11b1461086257604051633250574960e11b81526001600160a01b03851660048201526024016103c5565b5050505050565b6001600160a01b03821661089357604051633250574960e11b8152600060048201526024016103c5565b60006108a18383600061068c565b90506001600160a01b038116156104af576040516339e3563760e11b8152600060048201526024016103c5565b6000828152600a602052604090206108e68282611629565b506040518281527ff8e1a15aba9398e019f0b49df1a4fde98ee17ae345cb5f6b5e2c27f5033e8ce79060200160405180910390a15050565b606061092982610646565b506000828152600a602052604081208054610943906114ed565b80601f016020809104026020016040519081016040528092919081815260200182805461096f906114ed565b80156109bc5780601f10610991576101008083540402835291602001916109bc565b820191906000526020600020905b81548152906001019060200180831161099f57829003601f168201915b5050505050905060006109f760408051808201909152601581527468747470733a2f2f697066732e696f2f697066732f60581b602082015290565b90508051600003610a09575092915050565b815115610a3b578082604051602001610a239291906116e8565b60405160208183030381529060405292505050919050565b61069984610c3c565b60006001600160e01b0319821663780e9d6360e01b14806102cf57506102cf82610cce565b8080610a7d57506001600160a01b03821615155b15610b3f576000610a8d84610646565b90506001600160a01b03831615801590610ab95750826001600160a01b0316816001600160a01b031614155b8015610acc5750610aca81846105f3565b155b15610af55760405163a9fbf51f60e01b81526001600160a01b03841660048201526024016103c5565b8115610b3d5783856001600160a01b0316826001600160a01b03167f8c5be1e5ebec7d5bd14f71427d1e84f3dd0314c0f7b2291e5b200ac8c7c3b92560405160405180910390a45b505b5050600090815260046020526040902080546001600160a01b0319166001600160a01b0392909216919091179055565b600080610b7d858585610d1e565b90506001600160a01b038116610bda57610bd584600880546000838152600960205260408120829055600182018355919091527ff3f7a9fe364faab93b216da50a3214154f22a0a2b415b23a84c8169e8b636ee30155565b610bfd565b846001600160a01b0316816001600160a01b031614610bfd57610bfd8185610e17565b6001600160a01b038516610c1957610c1484610ea8565b610699565b846001600160a01b0316816001600160a01b031614610699576106998585610f57565b6060610c4782610646565b506000610c7c60408051808201909152601581527468747470733a2f2f697066732e696f2f697066732f60581b602082015290565b90506000815111610c9c5760405180602001604052806000815250610cc7565b80610ca684610fa7565b604051602001610cb79291906116e8565b6040516020818303038152906040525b9392505050565b60006001600160e01b031982166380ac58cd60e01b1480610cff57506001600160e01b03198216635b5e139f60e01b145b806102cf57506301ffc9a760e01b6001600160e01b03198316146102cf565b6000828152600260205260408120546001600160a01b0390811690831615610d4b57610d4b81848661103a565b6001600160a01b03811615610d8957610d68600085600080610a69565b6001600160a01b038116600090815260036020526040902080546000190190555b6001600160a01b03851615610db8576001600160a01b0385166000908152600360205260409020805460010190555b60008481526002602052604080822080546001600160a01b0319166001600160a01b0389811691821790925591518793918516917fddf252ad1be2c89b69c2b068fc378daa952ba7f163c4a11628f55a4df523b3ef91a4949350505050565b6000610e2283610518565b600083815260076020526040902054909150808214610e75576001600160a01b03841660009081526006602090815260408083208584528252808320548484528184208190558352600790915290208190555b5060009182526007602090815260408084208490556001600160a01b039094168352600681528383209183525290812055565b600854600090610eba90600190611717565b60008381526009602052604081205460088054939450909284908110610ee257610ee2611527565b906000526020600020015490508060088381548110610f0357610f03611527565b6000918252602080832090910192909255828152600990915260408082208490558582528120556008805480610f3b57610f3b61172a565b6001900381819060005260206000200160009055905550505050565b60006001610f6484610518565b610f6e9190611717565b6001600160a01b039093166000908152600660209081526040808320868452825280832085905593825260079052919091209190915550565b60606000610fb48361109e565b600101905060008167ffffffffffffffff811115610fd457610fd46111d9565b6040519080825280601f01601f191660200182016040528015610ffe576020820181803683370190505b5090508181016020015b600019016f181899199a1a9b1b9c1cb0b131b232b360811b600a86061a8153600a850494508461100857509392505050565b611045838383611176565b6104af576001600160a01b03831661107357604051637e27328960e01b8152600481018290526024016103c5565b60405163177e802f60e01b81526001600160a01b0383166004820152602481018290526044016103c5565b60008072184f03e93ff9f4daa797ed6e38ed64bf6a1f0160401b83106110dd5772184f03e93ff9f4daa797ed6e38ed64bf6a1f0160401b830492506040015b6d04ee2d6d415b85acef81000000008310611109576d04ee2d6d415b85acef8100000000830492506020015b662386f26fc10000831061112757662386f26fc10000830492506010015b6305f5e100831061113f576305f5e100830492506008015b612710831061115357612710830492506004015b60648310611165576064830492506002015b600a83106102cf5760010192915050565b60006001600160a01b038316158015906106995750826001600160a01b0316846001600160a01b031614806111b057506111b084846105f3565b806106995750506000908152600460205260409020546001600160a01b03908116911614919050565b634e487b7160e01b600052604160045260246000fd5b60008067ffffffffffffffff84111561120a5761120a6111d9565b50604051601f19601f85018116603f0116810181811067ffffffffffffffff82111715611239576112396111d9565b60405283815290508082840185101561125157600080fd5b83836020830137600060208583010152509392505050565b60006020828403121561127b57600080fd5b813567ffffffffffffffff81111561129257600080fd5b8201601f810184136112a357600080fd5b610699848235602084016111ef565b6001600160e01b0319811681146112c857600080fd5b50565b6000602082840312156112dd57600080fd5b8135610cc7816112b2565b60005b838110156113035781810151838201526020016112eb565b50506000910152565b600081518084526113248160208601602086016112e8565b601f01601f19169290920160200192915050565b602081526000610cc7602083018461130c565b60006020828403121561135d57600080fd5b5035919050565b80356001600160a01b038116811461137b57600080fd5b919050565b6000806040838503121561139357600080fd5b61139c83611364565b946020939093013593505050565b6000806000606084860312156113bf57600080fd5b6113c884611364565b92506113d660208501611364565b929592945050506040919091013590565b6000602082840312156113f957600080fd5b610cc782611364565b6000806040838503121561141557600080fd5b61141e83611364565b91506020830135801515811461143357600080fd5b809150509250929050565b6000806000806080858703121561145457600080fd5b61145d85611364565b935061146b60208601611364565b925060408501359150606085013567ffffffffffffffff81111561148e57600080fd5b8501601f8101871361149f57600080fd5b6114ae878235602084016111ef565b91505092959194509250565b600080604083850312156114cd57600080fd5b6114d683611364565b91506114e460208401611364565b90509250929050565b600181811c9082168061150157607f821691505b60208210810361152157634e487b7160e01b600052602260045260246000fd5b50919050565b634e487b7160e01b600052603260045260246000fd5b634e487b7160e01b600052601160045260246000fd5b6000600182016115655761156561153d565b5060010190565b6000825161157e8184602087016112e8565b9190910192915050565b6001600160a01b03858116825284166020820152604081018390526080606082018190526000906115bb9083018461130c565b9695505050505050565b6000602082840312156115d757600080fd5b8151610cc7816112b2565b601f8211156104af57806000526020600020601f840160051c810160208510156116095750805b601f840160051c820191505b818110156108625760008155600101611615565b815167ffffffffffffffff811115611643576116436111d9565b6116578161165184546114ed565b846115e2565b6020601f82116001811461168b57600083156116735750848201515b600019600385901b1c1916600184901b178455610862565b600084815260208120601f198516915b828110156116bb578785015182556020948501946001909201910161169b565b50848210156116d95786840151600019600387901b60f8161c191681555b50505050600190811b01905550565b600083516116fa8184602088016112e8565b83519083019061170e8183602088016112e8565b01949350505050565b818103818111156102cf576102cf61153d565b634e487b7160e01b600052603160045260246000fdfea2646970667358221220dd2789a2b464a9b9b3cfc47f32b0f9ee3f3c11ac55c50a9aeeba42a76b4f33a464736f6c634300081a0033",
  "devdoc": {
    "errors": {
      "ERC721EnumerableForbiddenBatchMint()": [
        {
          "details": "Batch mint is not allowed."
        }
      ],
      "ERC721IncorrectOwner(address,uint256,address)": [
        {
          "details": "Indicates an error related to the ownership over a particular token. Used in transfers.",
          "params": {
            "owner": "Address of the current owner of a token.",
            "sender": "Address whose tokens are being transferred.",
            "tokenId": "Identifier number of a token."
          }
        }
      ],
      "ERC721InsufficientApproval(address,uint256)": [
        {
          "details": "Indicates a failure with the `operator`s approval. Used in transfers.",
          "params": {
            "operator": "Address that may be allowed to operate on tokens without being their owner.",
            "tokenId": "Identifier number of a token."
          }
        }
      ],
      "ERC721InvalidApprover(address)": [
        {
          "details": "Indicates a failure with the `approver` of a token to be approved. Used in approvals.",
          "params": {
            "approver": "Address initiating an approval operation."
          }
        }
      ],
      "ERC721InvalidOperator(address)": [
        {
          "details": "Indicates a failure with the `operator` to be approved. Used in approvals.",
          "params": {
            "operator": "Address that may be allowed to operate on tokens without being their owner."
          }
        }
      ],
      "ERC721InvalidOwner(address)": [
        {
          "details": "Indicates that an address can't be an owner. For example, `address(0)` is a forbidden owner in EIP-20. Used in balance queries.",
          "params": {
            "owner": "Address of the current owner of a token."
          }
        }
      ],
      "ERC721InvalidReceiver(address)": [
        {
          "details": "Indicates a failure with the token `receiver`. Used in transfers.",
          "params": {
            "receiver": "Address to which tokens are being transferred."
          }
        }
      ],
      "ERC721InvalidSender(address)": [
        {
          "details": "Indicates a failure with the token `sender`. Used in transfers.",
          "params": {
            "sender": "Address whose tokens are being transferred."
          }
        }
      ],
      "ERC721NonexistentToken(uint256)": [
        {
          "details": "Indicates a `tokenId` whose `owner` is the zero address.",
          "params": {
            "tokenId": "Identifier number of a token."
          }
        }
      ],
      "ERC721OutOfBoundsIndex(address,uint256)": [
        {
          "details": "An `owner`'s token query was out of bounds for `index`. NOTE: The owner being `address(0)` indicates a global out of bounds index."
        }
      ]
    },
    "events": {
      "Approval(address,address,uint256)": {
        "details": "Emitted when `owner` enables `approved` to manage the `tokenId` token."
      },
      "ApprovalForAll(address,address,bool)": {
        "details": "Emitted when `owner` enables or disables (`approved`) `operator` to manage all of its assets."
      },
      "BatchMetadataUpdate(uint256,uint256)": {
        "details": "This event emits when the metadata of a range of tokens is changed. So that the third-party platforms such as NFT market could timely update the images and related attributes of the NFTs."
      },
      "MetadataUpdate(uint256)": {
        "details": "This event emits when the metadata of a token is changed. So that the third-party platforms such as NFT market could timely update the images and related attributes of the NFT."
      },
      "Transfer(address,address,uint256)": {
        "details": "Emitted when `tokenId` token is transferred from `from` to `to`."
      }
    },
    "kind": "dev",
    "methods": {
      "approve(address,uint256)": {
        "details": "See {IERC721-approve}."
      },
      "balanceOf(address)": {
        "details": "See {IERC721-balanceOf}."
      },
      "getApproved(uint256)": {
        "details": "See {IERC721-getApproved}."
      },
      "isApprovedForAll(address,address)": {
        "details": "See {IERC721-isApprovedForAll}."
      },
      "name()": {
        "details": "See {IERC721Metadata-name}."
      },
      "ownerOf(uint256)": {
        "details": "See {IERC721-ownerOf}."
      },
      "safeTransferFrom(address,address,uint256)": {
        "details": "See {IERC721-safeTransferFrom}."
      },
      "safeTransferFrom(address,address,uint256,bytes)": {
        "details": "See {IERC721-safeTransferFrom}."
      },
      "setApprovalForAll(address,bool)": {
        "details": "See {IERC721-setApprovalForAll}."
      },
      "symbol()": {
        "details": "See {IERC721Metadata-symbol}."
      },
      "tokenByIndex(uint256)": {
        "details": "See {IERC721Enumerable-tokenByIndex}."
      },
      "tokenOfOwnerByIndex(address,uint256)": {
        "details": "See {IERC721Enumerable-tokenOfOwnerByIndex}."
      },
      "totalSupply()": {
        "details": "See {IERC721Enumerable-totalSupply}."
      },
      "transferFrom(address,address,uint256)": {
        "details": "See {IERC721-transferFrom}."
      }
    },
    "version": 1
  },
  "userdoc": {
    "kind": "user",
    "methods": {},
    "version": 1
  },
  "storageLayout": {
    "storage": [
      {
        "astId": 1014,
        "contract": "contracts/MockERC721.sol:MockERC721",
        "label": "_name",
        "offset": 0,
        "slot": "0",
        "type": "t_string_storage"
      },
      {
        "astId": 1016,
        "contract": "contracts/MockERC721.sol:MockERC721",
        "label": "_symbol",
        "offset": 0,
        "slot": "1",
        "type": "t_string_storage"
      },
      {
        "astId": 1020,
        "contract": "contracts/MockERC721.sol:MockERC721",
        "label": "_owners",
        "offset": 0,
        "slot": "2",
        "type": "t_mapping(t_uint256,t_address)"
      },
      {
        "astId": 1024,
        "contract": "contracts/MockERC721.sol:MockERC721",
        "label": "_balances",
        "offset": 0,
        "slot": "3",
        "type": "t_mapping(t_address,t_uint256)"
      },
      {
        "astId": 1028,
        "contract": "contracts/MockERC721.sol:MockERC721",
        "label": "_tokenApprovals",
        "offset": 0,
        "slot": "4",
        "type": "t_mapping(t_uint256,t_address)"
      },
      {
        "astId": 1034,
        "contract": "contracts/MockERC721.sol:MockERC721",
        "label": "_operatorApprovals",
        "offset": 0,
        "slot": "5",
        "type": "t_mapping(t_address,t_mapping(t_address,t_bool))"
      },
      {
        "astId": 2144,
        "contract": "contracts/MockERC721.sol:MockERC721",
        "label": "_ownedTokens",
        "offset": 0,
        "slot": "6",
        "type": "t_mapping(t_address,t_mapping(t_uint256,t_uint256))"
      },
      {
        "astId": 2148,
        "contract": "contracts/MockERC721.sol:MockERC721",
        "label": "_ownedTokensIndex",
        "offset": 0,
        "slot": "7",
        "type": "t_mapping(t_uint256,t_uint256)"
      },
      {
        "astId": 2151,
        "contract": "contracts/MockERC721.sol:MockERC721",
        "label": "_allTokens",
        "offset": 0,
        "slot": "8",
        "type": "t_array(t_uint256)dyn_storage"
      },
      {
        "astId": 2155,
        "contract": "contracts/MockERC721.sol:MockERC721",
        "label": "_allTokensIndex",
        "offset": 0,
        "slot": "9",
        "type": "t_mapping(t_uint256,t_uint256)"
      },
      {
        "astId": 2537,
        "contract": "contracts/MockERC721.sol:MockERC721",
        "label": "_tokenURIs",
        "offset": 0,
        "slot": "10",
        "type": "t_mapping(t_uint256,t_string_storage)"
      },
      {
        "astId": 5139,
        "contract": "contracts/MockERC721.sol:MockERC721",
        "label": "uriToTokenId",
        "offset": 0,
        "slot": "11",
        "type": "t_mapping(t_string_memory_ptr,t_uint256)"
      },
      {
        "astId": 5141,
        "contract": "contracts/MockERC721.sol:MockERC721",
        "label": "_tokenIds",
        "offset": 0,
        "slot": "12",
        "type": "t_uint256"
      }
    ],
    "types": {
      "t_address": {
        "encoding": "inplace",
        "label": "address",
        "numberOfBytes": "20"
      },
      "t_array(t_uint256)dyn_storage": {
        "base": "t_uint256",
        "encoding": "dynamic_array",
        "label": "uint256[]",
        "numberOfBytes": "32"
      },
      "t_bool": {
        "encoding": "inplace",
        "label": "bool",
        "numberOfBytes": "1"
      },
      "t_mapping(t_address,t_bool)": {
        "encoding": "mapping",
        "key": "t_address",
        "label": "mapping(address => bool)",
        "numberOfBytes": "32",
        "value": "t_bool"
      },
      "t_mapping(t_address,t_mapping(t_address,t_bool))": {
        "encoding": "mapping",
        "key": "t_address",
        "label": "mapping(address => mapping(address => bool))",
        "numberOfBytes": "32",
        "value": "t_mapping(t_address,t_bool)"
      },
      "t_mapping(t_address,t_mapping(t_uint256,t_uint256))": {
        "encoding": "mapping",
        "key": "t_address",
        "label": "mapping(address => mapping(uint256 => uint256))",
        "numberOfBytes": "32",
        "value": "t_mapping(t_uint256,t_uint256)"
      },
      "t_mapping(t_address,t_uint256)": {
        "encoding": "mapping",
        "key": "t_address",
        "label": "mapping(address => uint256)",
        "numberOfBytes": "32",
        "value": "t_uint256"
      },
      "t_mapping(t_string_memory_ptr,t_uint256)": {
        "encoding": "mapping",
        "key": "t_string_memory_ptr",
        "label": "mapping(string => uint256)",
        "numberOfBytes": "32",
        "value": "t_uint256"
      },
      "t_mapping(t_uint256,t_address)": {
        "encoding": "mapping",
        "key": "t_uint256",
        "label": "mapping(uint256 => address)",
        "numberOfBytes": "32",
        "value": "t_address"
      },
      "t_mapping(t_uint256,t_string_storage)": {
        "encoding": "mapping",
        "key": "t_uint256",
        "label": "mapping(uint256 => string)",
        "numberOfBytes": "32",
        "value": "t_string_storage"
      },
      "t_mapping(t_uint256,t_uint256)": {
        "encoding": "mapping",
        "key": "t_uint256",
        "label": "mapping(uint256 => uint256)",
        "numberOfBytes": "32",
        "value": "t_uint256"
      },
      "t_string_memory_ptr": {
        "encoding": "bytes",
        "label": "string",
        "numberOfBytes": "32"
      },
      "t_string_storage": {
        "encoding": "bytes",
        "label": "string",
        "numberOfBytes": "32"
      },
      "t_uint256": {
        "encoding": "inplace",
        "label": "uint256",
        "numberOfBytes": "32"
      }
    }
  }
}